:020000040000FA
:020000000528D1
:080008006428831203139030F9
:100010008B00831603130117831603130B3085001F
:10002000013086008701880184309F00831203130A
:1000300041309F00A301231C2128861006159F151F
:100040002528861406119F1125281F151F192628FB
:10005000831603131E0883120313A000A420302864
:1000600005193528A00C7F30A005A1012008A200A9
:10007000FF30A2050A302202031C3F284528C03069
:1000800087002208592088001B2801302107A10081
:100090000A302202A200031C4E2845280A302207FB
:1000A000A2005920880001302102A10059208700B8
:1000B0001B288207C034F934A434B0349934923404
:1000C0008234F834803490348820061C6928A30ACE
:1000D00023088B1009000000000000000000000051
:1000E000000008000000A4307E28000040307E2878
:1000F0001F307E2800000E307E280530A400A40B9F
:100100007F280800C8309128643091283230912827
:10011000143091280A309128053091280230912816
:100120000130A500F930A4000000A40B9428A50B11
:1001300092280800C830A5286430A5283230A528A8
:100140001430A5280A30A5280530A6006430A50083
:10015000F930A4000000A40BAA28A50BA828A60B20
:04016000A6280800C5
:02400E00723FFF
:00000001FF
